:020000040800F2
:100000008013002081010008D10500089904000830
:10001000CD05000831030008B90E000800000000FB
:10002000000000000000000000000000950A000829
:100030006503000800000000150600085D0C0008BC
:100040009B0100089B0100089B0100089B01000820
:100050009B010008690300089B010008BD0300081C
:100060009B0100089B0100089B0100089B01000800
:100070009B0100089B0100089B0100089B010008F0
:100080009B0100089B010008000000009B01000884
:100090009B0100089B0100089B0100089B010008D0
:1000A0009B0100089B0100089B010008410D00080E
:1000B0009B010008000000009B01000800000000F8
:1000C0009B010008000000009B0100089B01000844
:1000D0009B0100089B0100089B0100080000000034
:1000E00000000000000000009B0100089B010008C8
:1000F0009B0100089B0100089B0100089B01000870
:100100009B01000800000000000000009B010008A7
:1001100000000000000000000000000000000000DF
:1001200000000000000000000000000000000000CF
:1001300000000000000000000000000000000000BF
:1001400000000000000000000000000000000000AF
:1001500000000000000000009B0100089B01000857
:100160009B0100089B010008DFF810D000F0CEF8DA
:1001700000480047A3140008AFF30080801300205C
:100180000648804706480047FEE7FEE7FEE7FEE731
:10019000FEE7FEE7FEE7FEE7FEE7FEE7650C000888
:1001A0006901000810B5431A934209D283188818D0
:1001B00003E010F8011D03F8011D521EF9D210BD15
:1001C00040EA01039B0703D009E008C9121F08C0D9
:1001D000042AFAD203E011F8013B00F8013B521E59
:1001E000F9D210BDD2B201E000F8012B491EFBD2BA
:1001F00070470022F6E710B513460A460446194632
:10020000FFF7F0FF204610BD80EA010210B502F0B2
:100210000043400022D04A001FD0010E01EB1261C2
:10022000C0F35600C2F3560240F4000042F400024C
:10023000A0FB022000047F39140400D0401C50EAC7
:10024000124001D44000491EC2B20C0604EBD0108B
:10025000401C4008802A02D003E0002010BD20F09E
:100260000100002900DA0020184310BD9623002267
:10027000114600F01DB820F00040C10DC0F316007B
:1002800040F400007F2901DA00207047962903DC42
:10029000C1F19601C84070479639884070470029DF
:1002A000A8BF7047401C490008BF20F001007047FC
:1002B00010B4B0FA80FC00FA0CF050EA010404BF5C
:1002C00010BC704749B1CCF1200421FA04F411FAB2
:1002D0000CF118BF012121430843A3EB0C01CB1DF6
:1002E0004FEA00614FEA102042BF002010BC704767
:1002F00000EBC35010440029A4BF10BC7047401C41
:10030000490008BF20F0010010BC7047064C074DA3
:1003100006E0E06840F0010394E8070098471034D5
:10032000AC42F6D3FFF724FF181D0008381D000863
:1003300000BFFEE770B50B460024118800BF0BE03C
:1003400010F8016B86EA2125EDB2054E36F81550FE
:1003500085EA0125A9B2641C9C42F1D3118070BDCD
:10036000D21A00087047000010B5022000F074FF98
:10037000F0B1022000F06AFF0E480068012805D1A4
:100380000D49086002200B49086011E00948006827
:1003900002280DD13B2000F09CFA044604F08000B6
:1003A00028B13A2000F038FB342000F035FB00BFC4
:1003B00010BD0000880000204800002010B592B059
:1003C000102000F049FF002856D0102000F03EFF1A
:1003D0002A492B4800F03AFA0446002C4CD1274811
:1003E0000078032848DD25480078C01EC0B28DF88B
:1003F0000400234800788DF8050000BF06E020497E
:10040000601C095C0DF106000155641C9DF8040098
:10041000A04201D9402CF2D318480078801E184918
:10042000085C8DF8460015480078401E095C8DF880
:100430004710144800680A281ED213490A68096840
:10044000491C114B196002EB0211104A02EB8100AA
:10045000442201A9FFF7A6FE0B4800680A21B0FB61
:10046000F1F201FB12000849086006480068401CD0
:100470000449086000F066FD12B010BD780000204D
:10048000D00B0020840000207C000020D80C00202D
:1004900010B500F0CDF910BD00BFFEE738B5044639
:1004A000002000900125444800784449087008461F
:1004B0000078401C0870084600780A2190FBF1F291
:1004C00001FB12003D490870084600783C49097854
:1004D00088426DD03B480078401C3A490870084675
:1004E0000078FF2190FBF1F201FB12003549087002
:1004F0003149097801EB0111334A02EBC101881C33
:100500008621FFF776FE2C49097801EB01112E4A6E
:1005100002EBC101881C86222146FFF743FE03201F
:100520002549097801EB0111274A02F831002548D5
:1005300000782149097801EB011102EBC1014870F3
:100540001D4A127802EB02121F4B03EBC202127912
:10055000511D194A127802EB021203EBC2006A46DF
:10056000FFF7E8FEBDF80000010A1348007800EB31
:100570000010154A02EBC00080F88610BDF800009C
:10058000C1B20D48007800EB001002EBC00080F80B
:10059000871009480078401C074908700846007811
:1005A0000A2190FBF1F201FB12000349087000E000
:1005B0000025284638BD0000180000203D0000201E
:1005C000190000203C0000208006002000BFFEE74C
:1005D000704700000020411E0B4A11604A0D0A4975
:1005E0008039C1F88420411E4FF0E022C2F8801209
:1005F0004A0D06490A6000BF03E0002204490A547C
:10060000401C0B28F9D3704780E100E084E200E051
:1006100000E400E07047000010B50446114800688F
:10062000F0B1114802680068401C0F4B186002EBE3
:1006300002100E4A02EB800144222046FFF7B2FD71
:10064000094800680A21B0FBF1F201FB12000649DB
:10065000086004480068401E02490860002010BD80
:100660000120FCE78400002080000020D80C00203E
:1006700010B500F03BF80A2000F014FD0D4800789A
:100680000D4A115C0D4800F03FF83F21172000F0A3
:10069000F9F93321052000F0F5F93321042000F0A9
:1006A000F1F90621022000F0EDF90721002000F009
:1006B000E9F910BD72000020FC1C00084C0000206D
:1006C00010B500F097F972B600F072F8FFF7D0FF9E
:1006D00000F06EF862B604480178092000F0D2F903
:1006E00000F014FA10BD00001700002010B500F053
:1006F00091FA0A2000F0D6FC302000F08DF90A2093
:1007000000F0D0FC10BD00002DE9F04106460F4678
:10071000002534461D488078262803D101201C4935
:10072000087000E000BF00BF19480078E8B1194820
:1007300017490978405C6071174815490978405C91
:10074000A071164812490978405CE07214481049BB
:100750000978405C207513480D490978405C607643
:1007600011480B490978405CA076002506E0615DE0
:100770000E4A505D00F086F9681CC5B2222DF6DBEA
:1007800039467E2000F07EF9BDE8F081720000203D
:100790006E0000200C1D00080E1D0008161D00082C
:1007A000101D0008121D0008141D0008DA1C0008A6
:1007B00010B54FF4C06000F0F3FE40F2115000F0AD
:1007C000EFFE40F2125000F0EBFE10230022114623
:1007D0004FF0904000F015FE02230022114613480E
:1007E00000F00FFE00220321052000F067FE00222A
:1007F0000221072000F062FE0421002000F086FFA5
:100800000121084600F082FF01220021022000F0B1
:10081000BFFC022000F01AFD00221146102000F05B
:10082000B7FC102000F012FD10BD000000040048CD
:1008300010B53D2000F0F0F810BD70B504460D462F
:100840002A462146FF2000F077F970BD7CB50446AA
:100850000D46012000F026FC012101A8FFF7EDFF65
:10086000012000F01FFC9DF804102046FFF7E5FF73
:10087000012000F017FC02216846FFF7DEFF01208F
:1008800000F010FC9DF800009DF8041060549DF8E5
:1008900001109DF80400401C21549DF80400801CA8
:1008A0002870362000F0B8F8012000F0FBFB3A2059
:1008B00000F0B2F8012000F0F5FB00F027F99DF8F8
:1008C000010000F08000802801D005207CBD0020C0
:1008D000FCE738B5044644F0C0000122694600F048
:1008E0002BF99DF8000038BD10B51C4840781C4914
:1008F000085C1C491C4A1278895C0844C4B20A206E
:1009000000F0D0FB2146032000F0BCF80A2000F0E4
:10091000C9FBC7211B2000F0B5F80A2000F0C2FB7C
:1009200000211C2000F0AEF80A2000F0BBFB1821CB
:10093000084600F0A7F80A2000F0B4FBF8212020B8
:1009400000F0A0F80A2000F0ADFB0721162000F00F
:1009500099F80A2000F0A6FB10BD000072000020EC
:10096000041D0008081D00086E00002000B587B0B7
:1009700040F20C6000F014FE40F2115000F010FE46
:10098000E02200214FF0904000F008FDE02300221B
:1009900002214FF0904000F034FDE02303220021BB
:1009A0004FF0904000F05CFD114800F03BFE6846BF
:1009B00000F085FE002001904FF48270009000202E
:1009C0000290032005904FF40070039010200690D1
:1009D000002004906946064800F058FE07210448AC
:1009E00000F00EFE024800F011FE07B000BD00004E
:1009F0000030014010B5FFF7B9FF10BD2DE9F041FF
:100A000004460D46164632462946204600F0CCF8EC
:100A100007463846BDE8F08170B50446352C03D151
:100A200001201649086008E0342C03D10220134944
:100A3000086002E00020114908600121104800F020
:100A4000DCFC322000F02EFB40214FF0904000F003
:100A500065FAC5B20DB9FF2070BD204600F038FE22
:100A6000322000F01FFB00BF0121054800F0C7FC49
:100A700000BF0A2000F016FB2846EDE788000020A2
:100A80000004004813B50446012201A92046FFF7DF
:100A9000B5FF1CBD70470FB410B5A2B0469C8822AC
:100AA00024A96846FFF77EFB00208DF80100012095
:100AB0008DF802008DF803406846FFF7EFFC22B086
:100AC00010BC5DF814FB0FB410B5A2B0469C882191
:100AD0006846FFF78EFB22460DF193010DF10300EE
:100AE000FFF760FB01208DF8000000208DF8010069
:100AF0008DF802406846FFF7D1FC22B010BC5DF8CB
:100B000014FB10B500F002F8002010BD10B5FFF77F
:100B1000EBFE002400E0641C142CFCD33420FFF70F
:100B20007BFF3520FFF7D5FE0446002400E0641C5F
:100B3000142CFCD310BD00002DE9F04781460D4672
:100B400016460121174800F058FC322000F0AAFA9E
:100B500040214FF0904000F0E1F9C7B217B9FF20F3
:100B6000BDE8F087484600F0B3FD0A2000F09AFA8D
:100B700000240AE0002000F0ABFD804605F8048068
:100B80000A2000F08FFA601C84B2B442F2DB00BF8E
:100B90000121044800F033FC00BF0A2000F082FA73
:100BA0003846DDE7000400482DE9F04180460D4657
:100BB00016460121164800F020FC322000F072FA9F
:100BC00040214FF0904000F0A9F9C7B217B9FF20BB
:100BD000BDE8F081404600F07BFD0A2000F062FA9B
:100BE000002407E0285D00F073FD0A2000F05AFAA7
:100BF000601C84B2B442F5DB00BF0121044800F060
:100C0000FEFB00BF0A2000F04DFA3846E0E7000086
:100C10000004004810B520214FF0904000F0EFFB99
:100C200080214FF0904000F0E8FB01210A4800F0DD
:100C3000E6FB1E2000F036FA0121074800F0DDFB3C
:100C4000642000F02FFA0121034800F0D8FB2D208A
:100C500000F028FA002010BD0004004810B500F094
:100C600051FA10BD08B53248006840F00100304923
:100C7000086000BF2E48006800F002000028F9D08C
:100C800000BF2B48406840F08000294948600020A0
:100C9000009002E00098401C009000985028F9D382
:100CA0002348406840F090002149486000200090AF
:100CB00002E00098401C009000985028F9D300BF33
:100CC0001B48406820F00300194948600846006846
:100CD0001849084016490860084640681649084007
:100CE0001349486008464068144908401049486064
:100CF0000846406820F4400048600846C06A20F07A
:100D00000F00C8620846006B40F24311884308494F
:100D100008630846406B20F00100486300208860AB
:100D200000F096FD00214FF0006000F027FC08BDA8
:100D300000100240FFFFF2FE0C00FF08FFFFC0F7AB
:100D400000B5C3B00020429040F20471454800F065
:100D50005CFE00287ED04449424800F065FE4148D0
:100D600000F04EFE022000F0D9F94048C07801287A
:100D700007D03E480079012865D03C48007900281A
:100D800061D03A480079411D42AA3848FFF7D2FAAB
:100D900036480079401D3549085CBDF80811B0EBB4
:100DA000112F50D131480079801D3049085CBDF8C1
:100DB0000811C9B2884246D12D49097801EB0111C9
:100DC0002C4A02EBC1008821FFF713FA2749097961
:100DD0004A1D2749097801EB0111264B03EBC1009D
:100DE0002249FFF7DFF922480078401C20490870AB
:100DF000084600780A2190FBF1F201FB12001C4921
:100E000008701A48C07801281DD11E900846007845
:100E100000EB0010174A02EBC00000F1120176222D
:100E20006846FFF7BFF91248007800EB0010114A3E
:100E300002EBC000811C862220A8FFF7B3F920A88E
:100E40000FC8FFF728FE0949022000F08BF98C211A
:100E5000022000E004E000F08FF9022000F070F9B9
:100E600043B000BD0038014004000407A400002086
:100E70000D000020300100201CB5002001900090E2
:100E800004220B4901A800F0F1FC04220849091DC5
:100E9000684600F0EBFC07490198884201D0002029
:100EA0001CBD00980B2801D00020F9E70120F7E7CE
:100EB000008C00080A0A100000BFFEE7F0B591B0F0
:100EC00006460D466846FFF7A7FBF0B99DF80100FE
:100ED00028B19DF801000F490978884217D19DF883
:100EE0000000A84213D89DF800400DF102079DF8BC
:100EF0004200094908703CB1224639463046FFF7A6
:100F000051F9204611B0F0BD01E00020FAE700BF22
:100F1000F8E70000170000209000002070B505469B
:100F20000E46002407E03146284600F091FA08B941
:100F3000012070BD641C44F620608442F3D300207D
:100F4000F7E7000030B5D1B0402141A8FFF7B6FF68
:100F50000446002C68D1484800884FF6FF7188424B
:100F600007D04548008820B143480088401E4249C8
:100F700008804148008840B9FFF7A2FB3620FFF700
:100F80004BFD4FF47A703C4908803C480068401C97
:100F90003A49086008460068052843D300200860E5
:100FA000FFF776FA054605F0F00000F00F0151BB9F
:100FB0000011082827D2DFE800F0040A0B0C0D0E00
:100FC000121CFFF79EFD00202D49086029E000BF9C
:100FD00000BF00BF00BF00202949086021E03A207F
:100FE000FFF71AFD3420FFF717FD002024490860A1
:100FF00017E03B20FFF710FD3420FFF70DFD002028
:101000001F4908600DE0FF2D0AD11D480068052822
:1010100006D21B480068401C19490860FFF750FBC6
:1010200000BF00BF51B030BD3220134908800020FE
:101030001249086012490860052C00D2F2E78821A5
:101040001FA8FFF7D6F8224641A90DF17F00FFF750
:10105000A9F81FA8C079401DA04200D9E2E7E0B27C
:10106000762223A91E906846FFF79CF81FA80FC898
:10107000FFF729FD00BFD5E798000020940000206D
:101080009C00002002E008C8121F08C1002AFAD103
:1010900070477047002001E001C1121F002AFBD1F8
:1010A000704700002DE9F04105462846FFF7DEF8BD
:1010B0000746134801683846FFF7A6F80646FFF7CB
:1010C000DAF84FF0E02148610020886101200861D2
:1010D00000BF4FF0E020046904F0010018B104F4EF
:1010E00080300028F5D04FF0E020006920F00100AA
:1010F0004FF0E021086100208861BDE8F081000028
:10110000000000200448006820B103480068401E29
:1011100001490860704700000800002000EB8001D2
:10112000064A02EB8101896821F0010100EB80028F
:10113000024B03EB82029160704700000000024006
:1011400000EB8001064A02EB8101896841F0010150
:1011500000EB8002024B03EB8202916070470000BB
:101160000000024000EB8002024B03EB820251615F
:10117000704700000000024010B58AB200EB800307
:10118000024C04EB8303DA6010BD00000000024053
:1011900010B52D4B1B6883432B4C2360231D1B680C
:1011A0008343241D2360231D1B688343241D236068
:1011B000231D1B688343241D236011B101290ED117
:1011C00005E0214B1B6803431F4C236008E01E4BC6
:1011D0001B1D1B6803431C4C241D236000E000BF43
:1011E00000BF32B1012A11D0022A1CD0032A27D114
:1011F00027E0154B08331B680343134C0834236066
:10120000231D1B688343241D23601BE00E4B083302
:101210001B6883430C4C08342360231D1B68034365
:10122000241D23600EE0084B08331B680343064C63
:1012300008342360231D1B680343241D236001E041
:1012400000BF00BF00BF10BD00040140014908609D
:10125000704700001404014001460748006800EA96
:10126000010205481438006800EA010312B10BB10D
:10127000012070470020FCE7140401400149C860C8
:1012800070470000002002400348006940F08000E1
:1012900001490861704700000020024070B5044613
:1012A0004FF4702000F01EF80546B5B90C480069EF
:1012B00040F002000A49086108464461006940F0B4
:1012C000400008614FF4702000F00CF80546044817
:1012D000006920F0020002490861284670BD000044
:1012E0000020024070B50546012400BF00F00CF854
:1012F00004466D1E012C01D1002DF7D1012C00D127
:101300000424204670BD000000200A49C96801F08D
:10131000010109B101200CE00649C96801F0100182
:1013200009B1032005E00349C96801F0040101B1D6
:1013300002207047002002400548006900F080004C
:1013400020B10448024948600348486070470000E3
:101350000020024023016745AB89EFCD70B50446FC
:101360000D464FF47020FFF7BDFF06468EB90A48C0
:10137000006940F001000849086125604FF47020C1
:10138000FFF7B0FF06460448006920F0010002495B
:101390000861304670BD000000200240F0B50346F1
:1013A0001C6A5D6A00200DE00126864016403EB1B1
:1013B00087000F26BE40B443860001FA06F6344388
:1013C000461CB0B20828EFD3082011E00126864061
:1013D00016405EB1A0F10806B7000F26BE40B54327
:1013E000A0F10806B60001FA06F63543461CB0B275
:1013F0001028EBD31C625D62F0BD81627047816191
:101400007047F0B504460D4616462168E268002094
:1014100019E0012787401F409FB14FEA400C032786
:1014200007FA0CF7B943470005FA07F739434FEAC3
:10143000400C032707FA0CF7BA43470006FA07F7F0
:101440003A43471CB8B21028E3D32160E260F0BDF4
:1014500002465069084008B1012070470020FCE7AF
:10146000F0B50C461546012C03D146681E43466074
:1014700002E046689E434660826800210DE0012636
:101480008E401E403EB14F000326BE40B2434E0088
:1014900005FA06F632434E1CB1B21029EFD3826032
:1014A000F0BD002401E000BF641C42F210708442D1
:1014B000F9DC01E000F05AFAFCE700002DE9F04108
:1014C00003460D46164600240027A046244800681F
:1014D00000F4E060B0F5A06F15D006DCB0F5407FF9
:1014E00018D0B0F5806F19D110E0B0F5C06F06D0FC
:1014F000B0F5E06F12D100274FF0040815E0012786
:101500004FF0030811E00227B8460EE003274FF022
:1015100001080AE004274FF0000806E04FF4A0603D
:1015200000F022F80227B84600BF00BFC7F1040050
:1015300005FA00F4C8F104010F20C840304004430C
:1015400024010848C45403F01F01012088405911A8
:10155000890001F1E021C1F80001BDE8F08100003F
:101560000CED00E000E400E002490143024A116092
:10157000704700000000FA050CED00E0064A0A4042
:101580000243064B1A6000BF00BF00BFBFF34F8F7E
:1015900000BF00BF00BF704780FFFF1F08ED00E0E5
:1015A000064A02EB9011096800F01F0301229A40DD
:1015B0001143024B03EB9012116070470010024080
:1015C000064A02EB9011096800F01F0301229A40BD
:1015D0009143024B03EB90121160704700100240E0
:1015E000064A02EB9011096800F01F0301229A409D
:1015F0001143024B03EB9012116070470010024040
:10160000026842F40052026001617047016841F0D3
:101610004001016070470146C86880B27047C160F0
:101620007047000010B504461348204470B1B0F56F
:10163000806F14D0B0F5784F1AD14FF44370FFF794
:10164000CFFF4FF44370FFF7BBFF12E040F20E40B4
:10165000FFF7C6FF40F20E40FFF7B2FF09E040F28D
:101660000F40FFF7BDFF40F20F40FFF7A9FF00E07A
:1016700000BF00BF10BD000000C8FFBF0246906859
:10168000084008B1012070470020FCE70246002016
:10169000106800F441500B6818434B6818438B687E
:1016A0001843CB6818430B6918434B6918438B697F
:1016B00018431060D36923F40063D361704700219D
:1016C000016041608160C160016141618161704779
:1016D00070B50446002500BF02210B48FFF7CEFF7E
:1016E0000028F9D021460848FFF799FF00BF0121E3
:1016F0000548FFF7C3FF0028F9D00348FFF78BFF29
:10170000C5B2284670BD00000030014070B50446E7
:101710000B46CD1701EB9575AD10A1EB8505AE001D
:101720000F25B540E843CD1701EB9575AD10A1EB42
:101730008505AD0004FA05F2CD1701EB9575AD10E6
:1017400035B1012D0ED0022D16D0032D28D11DE06C
:10175000154B9B680340144DAB602B469B681343AD
:10176000AB601EE0104BDB6803400F4DEB602B4677
:10177000DB681343EB6014E00B4B1B6903400A4D1D
:101780002B612B461B6913432B610AE0064B5B69F7
:101790000340054D6B612B465B6913436B6100E0B1
:1017A00000BF00BF70BD000000000140002000210C
:1017B000254A126842F48032234B1A6000BF401C55
:1017C000214A126802F4003111B9B0F5006FF6D168
:1017D0001D4A126802F4003202B970471A4A526870
:1017E000194B5A601A4652685A601A4652685A6033
:1017F0001A465268154B1A40134B5A601A465268E3
:1018000042F4E8125A601A46126842F080721A6076
:1018100000BF0D4A126802F00072002AF9D00A4A8D
:10182000526822F00302084B5A601A46526842F08E
:1018300002025A6000BF044A526802F00802002AFD
:10184000F9D000BFC9E7000000100240FFFFC277D7
:1018500010B5FFF7ABFF10BD70B504460D4600266E
:101860002946204600F00AF9304670BDF0B504461E
:101870000D461646002732462946204600F012F84B
:1018800007463846F0BD2DE9F04104460D461646A0
:10189000002732462946204600F011F80746384610
:1018A000BDE8F08110B5034603E011F8010B03F821
:1018B000010B101EA2F10104A2B2F6D110BD2DE958
:1018C000F84F05460E4614464FF001090027BA4668
:1018D0002046E11704EB91718910A4EB8101CFB28E
:1018E000E11704EB9171C1F38F0AFFF725FD4FF06B
:1018F000000816E030462968FFF730FD58B9361D5C
:101900002D1D2020FFF7BAFC1020FFF7B7FC0420A4
:10191000FFF7B4FC01E04FF0000908F101001FFAE5
:1019200080F8D045E6DBE7B1FF2204216846FEF7E8
:1019300059FC3A4629466846FEF734FC3046009981
:10194000FFF70CFD58B92020FFF798FC1020FFF797
:1019500095FC0420FFF792FC4FF0010901E04FF0E5
:101960000009FFF791FC4846BDE8F88F30B58BB011
:101970000422204902A8FFF779FF04221D490831FB
:1019800001A8FFF773FF029801282DD1019858BBD9
:10199000FFF772FA40B3042217496846FFF766FF63
:1019A0000098B0F5A04F1AD213490D391348FFF72C
:1019B00053FF114CF434114D0098204400900BE07B
:1019C0002022214603A8FFF751FF2022294603A821
:1019D000FFF759FF2034203500988442F0D30549A1
:1019E00018390846FFF738FF044800F027F80BB015
:1019F00030BD000018DC00080C8C00080040000816
:101A00000146486AC0F30800704710B5024602EB71
:101A10009110006801F01F040123A340184008B191
:101A2000012010BD0020FCE710B5026AC1F3044498
:101A30000123A3401A43026210BD000010B5044602
:101A40000A4920680840B0F1005F0ED1FEF7C2FDE0
:101A5000074960680860206880F3088800BF05486F
:101A60000549086002480068804710BD0000FE2F4D
:101A7000A00000200040000808ED00E02DE9F04142
:101A800004460E46301B012101EB9027FFF754FC62
:101A90002020FFF7F3FB1020FFF7F0FB0420FFF7F7
:101AA000EDFB00250FE04FF4806101FB0540FFF7DF
:101AB000F5FB2020FFF7E2FB1020FFF7DFFB0420FF
:101AC000FFF7DCFB6D1CBD42EDD3FFF7DDFBBDE88E
:101AD000F08100002110422063308440A550C66090
:101AE000E770088129914AA16BB18CC1ADD1CEE1DB
:101AF000EFF13112100273325222B5529442F77252
:101B0000D662399318837BB35AA3BDD39CC3FFF32A
:101B1000DEE36224433420040114E664C774A44461
:101B200085546AA54BB528850995EEE5CFF5ACC57A
:101B30008DD55336722611163006D776F666955631
:101B4000B4465BB77AA719973887DFF7FEE79DD7CA
:101B5000BCC7C448E5588668A778400861180228C1
:101B60002338CCC9EDD98EE9AFF9488969990AA91A
:101B70002BB9F55AD44AB77A966A711A500A333A91
:101B8000122AFDDBDCCBBFFB9EEB799B588B3BBB6A
:101B90001AABA66C877CE44CC55C222C033C600C21
:101BA000411CAEED8FFDECCDCDDD2AAD0BBD688DBA
:101BB000499D977EB66ED55EF44E133E322E511E71
:101BC000700E9FFFBEEFDDDFFCCF1BBF3AAF599F0A
:101BD000788F8891A981CAB1EBA10CD12DC14EF1AA
:101BE0006FE18010A100C230E32004502540467010
:101BF0006760B9839893FBA3DAB33DC31CD37FE33B
:101C00005EF3B1029012F322D2323542145277625F
:101C10005672EAB5CBA5A89589856EF54FE52CD50A
:101C20000DC5E234C324A0148104667447642454AF
:101C30000544DBA7FAB79987B8975FE77EF71DC71A
:101C40003CD7D326F2369106B016576676761546FF
:101C500034564CD96DC90EF92FE9C899E9898AB96A
:101C6000ABA94458654806782768C018E10882384F
:101C7000A3287DCB5CDB3FEB1EFBF98BD89BBBAB7A
:101C80009ABB754A545A376A167AF10AD01AB32A9F
:101C9000923A2EFD0FED6CDD4DCDAABD8BADE89DCA
:101CA000C98D267C076C645C454CA23C832CE01CEF
:101CB000C10C1FEF3EFF5DCF7CDF9BAFBABFD98F5A
:101CC000F89F176E367E554E745E932EB23ED10E3F
:101CD000F01EC0C0C0C0C0C0C0C00B0C0D0E0F10A5
:101CE000111213140A15212218191A1B1C1D232462
:101CF0002526292C2D2E000207080906120E1D3458
:101D00006084C8C007172737004006042DCA3B83EC
:101D1000EAE9888131356234381D0008000000206E
:101D2000A400000084100008DC1D0008A4000020AE
:101D3000DC12000094100008000000000000000009
:101D4000000000000000000056312E302E3700DE6B
:101D50000000000000000000000000000000000083
:101D60000000000000000000000000000000000073
:101D70000000000000000000000000000000000063
:101D8000000000000C0010A7622D3B0322F8006247
:101D9000B610181D1CC700B0EA2A001F5988310967
:101DA00007060E45FE40010001FE07002600140054
:101DB00040000000000000000000000000000000E3
:101DC0000000000000000000000000000000000013
:0C1DD00000000000000000000000000007
:040000050800016985
:00000001FF
