:020000040800F2
:1000000088060020810100082D0200082502000852
:10001000290200081F020008410300080000000038
:100020000000000000000000000000005B0200086B
:100030002302000800000000590200085D020008C9
:100040009B0100089B0100089B0100089B01000820
:100050009B0100089B0100089B0100089B01000810
:100060009B0100089B0100089B0100089B01000800
:100070009B0100089B0100089B0100089B010008F0
:100080009B0100089B010008000000009B01000884
:100090009B0100089B0100089B0100089B010008D0
:1000A0009B0100089B0100089B0100089B010008C0
:1000B0009B010008000000009B01000800000000F8
:1000C0009B010008000000009B0100089B01000844
:1000D0009B0100089B0100089B0100080000000034
:1000E00000000000000000009B0100089B010008C8
:1000F0009B0100089B0100089B0100089B01000870
:100100009B01000800000000000000009B010008A7
:1001100000000000000000000000000000000000DF
:1001200000000000000000000000000000000000CF
:1001300000000000000000000000000000000000BF
:1001400000000000000000000000000000000000AF
:1001500000000000000000009B0100089B01000857
:100160009B0100089B010008DFF810D000F01AF88E
:100170000048004711090008AFF3008088060020FE
:100180000648804706480047FEE7FEE7FEE7FEE731
:10019000FEE7FEE7FEE7FEE7FEE7FEE76502000892
:1001A00069010008064C074D06E0E06840F00103D5
:1001B00094E8070098471034AC42F6D3FFF7D8FF15
:1001C000140F0008340F000870B58C1810F8015B8C
:1001D00015F0070301D110F8013B2A1106D110F8E0
:1001E000012B03E010F8016B01F8016B5B1EF9D1E4
:1001F0002B0705D40023521E0DD401F8013BFAE76A
:1002000010F8013BCB1A921C03E013F8015B01F8D4
:10021000015B521EF9D5A142D8D3002070BD00BFAA
:10022000FEE7704700BFFEE700BFFEE77047000033
:1002300010B5002807DA0A07140E054A00F00F036C
:100240001B1FD45403E00A07130E024A135410BDB7
:1002500018ED00E000E400E07047704710B500F0D2
:100260008BF810BD08B53248006840F001003049F5
:10027000086000BF2E48006800F002000028F9D096
:1002800000BF2B48406840F08000294948600020AA
:10029000009002E00098401C009000985028F9D38C
:1002A0002348406840F090002149486000200090B9
:1002B00002E00098401C009000985028F9D300BF3D
:1002C0001B48406820F00300194948600846006850
:1002D0001849084016490860084640681649084011
:1002E000134948600846406814490840104948606E
:1002F0000846406820F4400048600846C06A20F084
:100300000F00C8620846006B40F243118843084959
:1003100008630846406B20F00100486300208860B5
:1003200000F048FD00214FF0006000F05BFB08BDCD
:1003300000100240FFFFF2FE0C00FF08FFFFC0F7B5
:1003400000BFFEE702E008C8121F08C1002AFAD168
:1003500070477047002001E001C1121F002AFBD145
:10036000704700000349086000BF0249096800297E
:10037000FBD17047100100200448006820B10348F9
:100380000068401E0149086070470000100100200D
:1003900000EB8001064A02EB8101896821F001012E
:1003A00000EB8002024B03EB820291607047000079
:1003B0000000024000EB8001064A02EB81018968DF
:1003C00041F0010100EB8002024B03EB82029160DD
:1003D000704700000000024000EB8001064A02EB7B
:1003E0008101896821F0200100EB8002024B03EBC0
:1003F00082029160704700000000024000B589B0A1
:100400004FF4A06000F054FC012000F053F80120EC
:100410008DF819002448049001208DF81800002060
:1004200005904FF4807007902048019000208DF8CF
:100430000C0002904FF44050089001A9012000F0F8
:1004400077F80120FFF7C8FF012000F0FFF8012036
:10045000FFF7C2FF012000F0F9F8022000F02AF8AF
:1004600000208DF819001248049001208DF8180022
:10047000002005904FF4807007900C48001F0190F9
:1004800000208DF80C0002904FF44050089001A914
:10049000022000F04DF80220FFF79EFF022000F03E
:1004A000D5F809B000BD0000000000202838014048
:1004B0008401002000EB8001144A02EB810189686D
:1004C00021F0010100EB8002104B03EB82029160EE
:1004D000002100EB800203EB8202916000EB8002BE
:1004E00003EB8202D16000EB800203EB8202116118
:1004F00000EB800203EB82025161194649688300D8
:100500000F229A401143014A516070470000024097
:1005100010B50246054B1B68940001FA04F4234011
:100520000BB1012000E0002010BD000000000240DF
:1005300070B504460D462046FFF72AFF04EB840100
:10054000414A02EB81012868086104EB840102EB57
:100550008101E8684861288B80B204EB840102EBDA
:100560008101C86004EB8400114601EB80008668BD
:1005700026F47C56296968680843E96908430643FC
:1005800004EB8400114601EB80008660287A012884
:100590000CD104EB840001EB8000806840F0400047
:1005A00004EB840102EB810188600DE004EB840020
:1005B000254901EB8000806820F0400004EB8401B5
:1005C000214A02EB81018860287D01280ED104EBCD
:1005D00084001D4901EB8000806840F0800004EB3E
:1005E0008401194A02EB810188600DE004EB84006C
:1005F000154901EB8000806820F0800004EB840145
:10060000114A02EB81018860687D70B904EB8400B7
:100610000D4901EB8000806820F0100004EB84019C
:10062000094A02EB810188600DE004EB8400064971
:1006300001EB8000806840F0100004EB8401024A66
:1006400002EB8101886070BD0000024000EB800178
:10065000064A02EB8101896821F4804100EB8002A7
:10066000024B03EB820291607047000000000240E1
:1006700070B5054600242A48854200D100BF40F2EB
:10068000115000F015FB274931F8140000F010FB61
:10069000254850F8242001214FF0904000F08AF8BE
:1006A000224850F8242001214FF0904000F082F8B9
:1006B0001D4850F82430012202214FF0904000F0F4
:1006C000A8F8194850F82430012200214FF090403A
:1006D00000F0C6F8154850F82430012202214FF0EE
:1006E000904000F096F8114850F824300122002183
:1006F0004FF0904000F0B4F8284600F0C5FB4FF4EE
:10070000E131284600F082FB0821284600F0F9FB81
:100710000421284600F0EDFB284600F0E5FB70BD03
:1007200000380140380100203C0100204001002039
:1007300010B50446104931F8140000F0B9FA0F4919
:1007400051F824300E4951F824000022012100F014
:1007500060F80A4951F82430094951F8240003226D
:10076000002100F07DF8054850F82400044951F8B4
:100770002410886210BD00004401002028010020E0
:1007800018010020034951F82010034A52F8202094
:10079000916270472801002018010020034951F898
:1007A0002010034A52F82020916170472801002050
:1007B00018010020F0B503461C6A5D6A00200DE0B8
:1007C0000126864016403EB187000F26BE40B44346
:1007D000860001FA06F63443461CB0B20828EFD36F
:1007E000082011E00126864016405EB1A0F10806FF
:1007F000B7000F26BE40B543A0F10806B60001FAC7
:1008000006F63543461CB0B21028EBD31C625D627D
:10081000F0BDF0B504460D4616462168E26800209A
:1008200019E0012787401F409FB14FEA400C032782
:1008300007FA0CF7B943470005FA07F739434FEABF
:10084000400C032707FA0CF7BA43470006FA07F7EC
:100850003A43471CB8B21028E3D32160E260F0BDF0
:10086000F0B50C461546012C03D146681E43466080
:1008700002E046689E434660826800210DE0012642
:100880008E401E403EB14F000326BE40B2434E0094
:1008900005FA06F632434E1CB1B21029EFD382603E
:1008A000F0BD70B50446002520E04FF4C870FFF796
:1008B00059FD0020FFF772FF0120FFF76FFF0220B4
:1008C000FFF76CFF0320FFF769FF4FF4C870FFF7D5
:1008D00049FD0020FFF756FF0120FFF753FF0220DC
:1008E000FFF750FF0320FFF74DFF6D1CA542DCDB37
:1008F00070BD10B50020FFF71BFF0120FFF718FFA8
:100900000220FFF715FF0320FFF712FF10BD0000C4
:10091000FFF7EFFFFFF772FD00F050FA0120FFF73D
:10092000C0FF2348FFF7A4FE0120FFF743FD02208C
:10093000FFF740FD80211E4800F0CEFA40211C4800
:1009400000F0C2FA00BF02210120FFF7E1FD0028FC
:10095000F9D000BF02210846FFF7DAFD0028F9D0E0
:100960004FF480721349144800F02AF813490870B4
:100970000846007801280CD10020FFF70FFF012066
:10098000FFF70CFF0220FFF709FF0320FFF706FF28
:100990000BE00020FFF7F6FE0120FFF7F3FE022038
:1009A000FFF7F0FE0320FFF7EDFE00BFFEE70000BB
:1009B0000038014084010020000000200C010020CC
:1009C00030B5034607E013F8014B11F8015BAC4268
:1009D00001D0002030BD101EA2F10104A2B2F2D15C
:1009E0000120F7E7064A0A400243064B1A6000BF9F
:1009F00000BF00BFBFF34F8F00BF00BF00BF7047F5
:100A000080FFFF1F08ED00E02DE9F04F8FB0044696
:100A10004FF0000CE0460020002200258146CDF872
:100A200038900021CDF83490CDF83090CDF82C904E
:100A30000023CDF82890CDF82490CDF82090002602
:100A400000270FF24C2999E8004CD9F80C90CDE919
:100A500005BECDF810A0CDF81C900FF2382ADAE9C7
:100A6000009ACDE9029A0FF22C2ADAE9009ACDE930
:100A7000009ADFF82C92D9F80490C9F3810CBCF1EC
:100A8000000F06D0BCF1010F05D0BCF1020F3FD121
:100A900003E0844A3EE0834A3CE0DFF80492D9F860
:100AA0000490C9F38343DFF8F891D9F80490C9F3AF
:100AB000C069CDF82890DDF82890B9F1000F01D079
:100AC000113300E09B1CDFF8D891D9F80490C9F3EA
:100AD0000049CDF82490DDF82490B9F1000F12D030
:100AE000DFF8BC91D9F82C9009F00F0909F1010940
:100AF000CDF82090DFF8ACA1DDF82090BAFBF9F931
:100B000009FB03F203E0DFF8A09103FB09F201E027
:100B1000644A00BF00BFDFF88891D9F80490C9F398
:100B200003160DF1100919F8067022FA07F5DFF81F
:100B30007091D9F80490C9F302260DF1080919F84B
:100B4000067025FA07F9CDF83890DFF85491D9F8F6
:100B50000490C9F3C2261DF8067025FA07F1072C88
:100B600072D2DFE804F00406080A0C475B00104666
:100B700089E0284687E00E9885E0084683E0DFF8A4
:100B80002091D9F8309009F48079B9F5807F04D0AC
:100B9000DFF81891CDF834902AE0DFF80491D9F805
:100BA0000490C9F38138B8F1000F09D0B8F1010FF2
:100BB0000BD0B8F1020F0DD0B8F1030F16D110E031
:100BC0004FEA5109CDF8349011E04FEA9109CDF880
:100BD00034900CE04FF00609B1FBF9F9CDF83490F0
:100BE00005E04FEAD109CDF8349000E000BF00BF26
:100BF0000D9848E0DFF8A890D9F8309009F0400946
:100C0000B9F1400F04D048F21209CDF8309003E05A
:100C10004FF40049CDF830900C9834E0DFF8809024
:100C2000D9F8309009F00309B9F1000F01D10B9107
:100C300026E0DFF86C90D9F8309009F00309B9F19B
:100C4000010F02D10B921BE01CE0DFF85490D9F8A1
:100C5000309009F00309B9F1020F04D14FF40049B3
:100C6000CDF82C900CE0DFF83890D9F8309009F0EE
:100C70000309B9F1030F03D1DFF82890CDF82C90C8
:100C80000B9800E000BF00BF0FB0BDE8F08F000080
:100C9000000000000000000001020304060708092C
:100CA0000010024000127A0000093D00809FD5002C
:100CB000064A02EB9011096800F01F0301229A40D6
:100CC0001143024B03EB9012116070470010024079
:100CD000064A02EB9011096800F01F0301229A40B6
:100CE0009143024B03EB90121160704700100240D9
:100CF000064A02EB9011096800F01F0301229A4096
:100D00001143024B03EB9012116070470010024038
:100D100000200021254A126842F48032234B1A60D9
:100D200000BF401C214A126802F4003111B9B0F52D
:100D3000006FF6D11D4A126802F4003202B9704702
:100D40001A4A5268194B5A601A4652685A601A4633
:100D500052685A601A465268154B1A40134B5A6033
:100D60001A46526842F4E8125A601A46126842F073
:100D700080721A6000BF0D4A126802F00072002AE9
:100D8000F9D00A4A526822F00302084B5A601A4608
:100D9000526842F002025A6000BF044A526802F0F0
:100DA0000802002AF9D000BFC9E700000010024085
:100DB000FFFFC27710B5FFF7ABFF10BD10B51248AB
:100DC00000684FF47A71B0FBF1F4601EB0F1807FDF
:100DD00001D301200FE0601E4FF0E02148610F2198
:100DE0004FF0FF30FFF724FA00204FF0E021886138
:100DF00007200861002008B100BFFEE70021481E5F
:100E0000FFF716FA10BD0000140100202DE9F0478D
:100E100004460D460027B846B94600261948204426
:100E200038B1B0F5744F09D10620FFF7EDFD074644
:100E300005E00220FFF7E8FD074600E000BF00BF25
:100E4000206800F4004070B1780000EB5500B0FB62
:100E5000F5F64FF6F07006EA0008C6F3420948EAD4
:100E60000900E0600CE007EB5500B0FBF5F64FF62B
:100E7000F07006EA000806F00F0948EA0900E06091
:100E8000BDE8F08700BCFFBF10B504460D48204404
:100E900058B1B0F5744F11D140F20E30FFF728FF72
:100EA00040F20E30FFF714FF09E040F21140FFF767
:100EB0001FFF40F21140FFF70BFF00E000BF00BF33
:100EC00010BD000000BCFFBF826822F040028260BB
:100ED00082680A4382607047826822F080028260E2
:100EE00082680A4382607047016841F00101016035
:100EF0007047026822F00402026002680A4302603E
:100F00007047026822F00802026002680A43026029
:100F100070470000340F000800000020840100002A
:100F2000C80100087C1000088401002004050000AE
:100F3000540300081100FF0001020304050607081E
:100F4000090A0B0C0D0E0F10111213141516171899
:100F5000191A1B1C1D1E1F20212223242526272889
:100F6000292A2B2C2D2E2F30313233343536373879
:100F7000393A3B3C3D3E3F40414243444546474869
:100F8000494A4B4C4D4E4F50515253545556575859
:100F9000595A5B5C5D5E5F60616263646566676849
:100FA000696A6B6C6D6E6F70717273747576777839
:100FB000797A7B7C7D7E7F80818283848586878829
:100FC000898A8B8C8D8E8F90919293949596979819
:100FD000999A9B9C9D9E9FA0A1A2A3A4A5A6A7A809
:100FE000A9AAABACADAEAFB0B1B2B3B4B5B6B7B8F9
:100FF000B9BABBBCBDBEBFC0C1C2C3C4C5C6C7C8E9
:10100000C9CACBCCCDCECFD0D1D2D3D4D5D6D7D8D8
:10101000D9DADBDCDDDEDFE0E1E2E3E4E5E6E7E8C8
:10102000E9EAEBECEDEEEFF0F1F2F3F4F5F6F7F8B8
:10103000F9FAFBFCFDFE52FF5A01048114A24A0496
:1010400012087A48041A0C04320432082210290BC0
:10105000330E063202190D2B1305023314054930E5
:1010600012143A484F222032801A111E1A161EA955
:0C1070001411130205360D0705070700D8
:040000050800016985
:00000001FF
