:020000040800F2
:10400000A81300208141000825470008EB4500085F
:1040100021470008AD4300080954000800000000D3
:104020000000000000000000000000000F4E00082B
:10403000E1430008000000006947000871510008D2
:104040009B4100089B4100089B4100089B410008E0
:104050009B410008E54300089B41000839440008E3
:104060009B4100089B4100089B4100089B410008C0
:104070009B4100089B4100089B4100089B410008B0
:104080009B4100089B410008000000009B41000884
:104090009B4100089B4100089B4100089B41000890
:1040A0009B4100089B4100089B4100088D5200087D
:1040B0009B410008000000009B4100080000000038
:1040C0009B410008000000009B4100089B41000844
:1040D0009B4100089B4100089B4100080000000034
:1040E00000000000000000009B4100089B41000808
:1040F0009B4100089B4100089B4100089B41000830
:104100009B41000800000000000000009B410008E7
:10411000000000000000000000000000000000009F
:10412000000000000000000000000000000000008F
:10413000000000000000000000000000000000007F
:10414000000000000000000000000000000000006F
:1041500000000000000000009B4100089B41000897
:104160009B4100089B410008DFF810D000F00CF9DB
:1041700000480047B1620008AFF30080A813002098
:104180000648804706480047FEE7FEE7FEE7FEE7F1
:10419000FEE7FEE7FEE7FEE7FEE7FEE779510008EF
:1041A0006941000810B5431A934209D28318881850
:1041B00003E010F8011D03F8011D521EF9D210BDD5
:1041C00040EA01039B0703D009E008C9121F08C099
:1041D000042AFAD203E011F8013B00F8013B521E19
:1041E000F9D210BDD2B201E000F8012B491EFBD27A
:1041F00070470022F6E710B513460A4604461946F2
:10420000FFF7F0FF204610BD80EA010210B502F072
:104210000043400022D04A001FD0010E01EB126182
:10422000C0F35600C2F3560240F4000042F400020C
:10423000A0FB022000047F39140400D0401C50EA87
:10424000124001D44000491EC2B20C0604EBD0104B
:10425000401C4008802A02D003E0002010BD20F05E
:104260000100002900DA0020184310BD30B480EAB4
:10427000010202F0004530F0004221F0004013D06E
:1042800090B1C30DD40DC2F31601C0F31600E41AA9
:1042900041F4000140F400027D34914201D3641CDA
:1042A00000E04900002C02DA30BC002070474FF4D7
:1042B00000000023914201D3891A034340084FEACA
:1042C0004101F7D151B1914202D14FF0004105E0D7
:1042D00002D24FF0010101E06FF0010103EBC45085
:1042E000284430BC00F019B896230022114600F093
:1042F0001DB820F00040C10DC0F3160040F40000CE
:104300007F2901DA00207047962903DCC1F196016C
:10431000C84070479639884070470029A8BF704749
:10432000401C490008BF20F00100704710B4B0FAEB
:1043300080FC00FA0CF050EA010404BF10BC704786
:1043400049B1CCF1200421FA04F411FA0CF118BFA0
:10435000012121430843A3EB0C01CB1D4FEA00616F
:104360004FEA102042BF002010BC704700EBC35042
:1043700010440029A4BF10BC7047401C490008BF6E
:1043800020F0010010BC7047064C074D06E0E068C5
:1043900040F0010394E8070098471034AC42F6D38C
:1043A000FFF7E6FEB8760008D876000800BFFEE703
:1043B00070B50B460024118800BF0BE010F8016BAC
:1043C00086EA2125EDB2054E36F8155085EA01251D
:1043D000A9B2641C9C42F1D3118070BD82700008A8
:1043E0007047000010B5022001F0B2FDF0B10220CC
:1043F00001F0A8FD0E480068012805D10D490860AC
:1044000002200B49086011E00948006802280DD11C
:104410003B2000F012FC044604F0800028B13A2052
:1044200000F0AEFC342000F0ABFC00BF10BD00007B
:10443000900000205000002010B592B0102001F034
:1044400087FD002856D0102001F07CFD2A492B481A
:1044500000F0B0FB0446002C4CD12748007803281C
:1044600048DD25480078C01EC0B28DF804002348FE
:1044700000788DF8050000BF06E02049601C095C4B
:104480000DF106000155641C9DF80400A04201D9FD
:10449000402CF2D318480078801E1849085C8DF82B
:1044A000460015480078401E095C8DF847101448F6
:1044B00000680A281ED213490A680968491C114B72
:1044C000196002EB0211104A02EB8100442201A99B
:1044D000FFF768FE0B4800680A21B0FBF1F201FB10
:1044E00012000849086006480068401C044908603A
:1044F00001F010FA12B010BD80000020D80B00208F
:104500008C00002084000020E00C002010B5044640
:1045100004F0010008B100F007F94FF0006002F06C
:1045200055FD10BD10B500F037FB10BD0FB410B530
:104530009DF80B409DF80C0044EA00249DF80D0006
:1045400044EA004084B29DF80E0044EA006084B260
:104550002046FFF7DBFF10BC5DF814FB0FB430B54D
:10456000A3B000240025882101A8FFF742FE86227F
:104570000DF19B010DF10700FFF714FE9DF80700F8
:104580000B49087008460178092000F038FC9DF8B6
:1045900008402146052000F032FC9DF809502946CC
:1045A000042000F02CFC23B030BC5DF814FB0000AC
:1045B0001B0000200FB410B5A0B080216846FFF7A3
:1045C00018FE9DF88A00421E23A96846FFF7EAFDFF
:1045D0009DF88B409DF80400411D2246684601F07D
:1045E00077F920B010BC5DF814FB00BFFEE70000B7
:1045F00038B504460020009001254448007844491D
:10460000087008460078401C0870084600780A21A7
:1046100090FBF1F201FB12003D490870084600785A
:104620003C49097888426DD03B480078401C3A49A3
:10463000087008460078FF2190FBF1F201FB1200A0
:10464000354908703149097801EB0111334A02EB11
:10465000C101881C8621FFF7CCFD2C49097801EBAC
:1046600001112E4A02EBC101881C86222146FFF768
:1046700099FD03202549097801EB0111274A02F829
:104680003100254800782149097801EB011102EB3E
:10469000C10148701D4A127802EB02121F4B03EB56
:1046A000C2021279511D194A127802EB021203EB71
:1046B000C2006A46FFF77CFEBDF80000010A1348FD
:1046C000007800EB0010154A02EBC00080F886105D
:1046D000BDF80000C1B20D48007800EB001002EBFD
:1046E000C00080F8871009480078401C074908700E
:1046F000084600780A2190FBF1F201FB1200034901
:10470000087000E00025284638BD00001C0000208D
:10471000450000201D0000204400002088060020E5
:1047200000BFFEE77047000000BF00BF00BFBFF33F
:104730004F8F00BF00BF00BF0948006800F4E06071
:1047400008490843001D0649086000BF00BF00BFBC
:10475000BFF34F8F00BF00BF00BF00E000BFFDE709
:104760000CED00E00000FA05704770B5002436201B
:1047700000F006FB00BF352000F05FFA0546601C24
:1047800084B20A2001F0A6F9052C01DD032070BDDA
:10479000012DF0D10020FAE710B504461148006859
:1047A000F0B1114802680068401C0F4B186002EB22
:1047B00002100E4A02EB800144222046FFF7F2FC71
:1047C000094800680A21B0FBF1F201FB120006491A
:1047D000086004480068401E02490860002010BDBF
:1047E0000120FCE78C00002088000020E00C002065
:1047F00010B500F02FF90A2001F06CF90D4800788F
:104800000D4A115C0D4800F033F93F21172000F0EC
:10481000F6FA3321052000F0F2FA3321042000F0EB
:10482000EEFA0621022000F0EAFA0721002000F04B
:10483000E6FA10BD7A000020AC7200085400002097
:1048400010B500F08BFA72B600F066F9FFF7D0FFF2
:1048500000F062F962B604480178092000F0CFFA4E
:1048600000F0DEFB10BD00001B0000202DE9F0432E
:1048700091B00746884615468DF80570022405E07C
:10488000A01E18F8000001A90855641C2868801CA7
:10489000A042F5D82878401CC6B28DF80460314695
:1048A00001A800F007F8814600F0B5FB484611B0BA
:1048B000BDE8F0832DE9F04180460D460026002733
:1048C0000024402D02DB0220BDE8F0810121002000
:1048D00000F078FB08B10320F6E70A2001F0FAF8AF
:1048E0003B2000F04DFA0A2001F0F4F800202C499A
:1048F00008602946062000F082FA282001F0EAF834
:10490000681CC1B2404600F071FA342000F038FA59
:1049100000240BE0352000F090F907460D2F00D160
:1049200006E0601C84B2012001F0D4F8FA2CF1DD1D
:1049300000BFFB2C01D10320C6E700240EE0352088
:1049400000F01EFA352000F078F90746132F00D149
:1049500006E0601C84B2012001F0BCF80A2CEEDDF8
:1049600000BF0A2001F0B6F8002609E00C480068F4
:1049700030B100200A4908600A2001F0ABF804E0D9
:104980003046761CB0F5003FF0D300BF3B2000F06E
:10499000F7F9B6F5003F01D2002095E7FF2093E735
:1049A0005000002000B5E3B041A800F02FFD10B981
:1049B000002063B000BD9DF80501254909788842B3
:1049C00001D10020F5E79DF80501214908708821F3
:1049D0001FA8FFF70EFC86220DF583711FA8FFF7B5
:1049E000E1FB9DF87C00012806D004280ED00528A4
:1049F00016D0072828D11DE0762223A96846FFF7A4
:104A0000D1FB1FA80FC8FFF7D5FD1EE0762223A912
:104A10006846FFF7C7FB1FA80FC8FFF79FFD14E00C
:104A2000762223A96846FFF7BDFB1FA80FC800F038
:104A30001DFD0AE0762223A96846FFF7B3FB1FA8F5
:104A40000FC8FFF773FD00E000BF00BF0120B0E713
:104A50004A00002010B500F067FB0A2001F03AF888
:104A6000302000F08DF90A2001F034F810BD00006C
:104A70002DE9F04106460F46002534461D48807852
:104A8000262803D101201C49087000E000BF00BFA8
:104A900019480078E8B1194817490978405C6071F5
:104AA000174815490978405CA071164812490978E1
:104AB000405CE072144810490978405C2075134846
:104AC0000D490978405C607611480B490978405CD3
:104AD000A076002506E0615D0E4A505D00F08FF97A
:104AE000681CC5B2222DF6DB39467E2000F087F91E
:104AF000BDE8F0817A00002076000020BC7200083A
:104B0000BE720008C6720008C0720008C2720008B7
:104B1000C47200088A72000810B54FF4C06001F03A
:104B200071FE40F2115001F06DFE40F2125001F0A2
:104B300069FE1023002211464FF0904001F05AFB0D
:104B4000022300221146134801F054FB00220321E6
:104B5000052001F0E9FB00220221072001F0E4FB1F
:104B60000421002001F004FF0121084601F000FFAC
:104B700001220021022001F087F9022001F0E2F970
:104B800000221146102001F07FF9102001F0DAF91F
:104B900010BD00000004004810B53D2000F0F0F802
:104BA00010BD70B504460D462A462146FF2000F090
:104BB0004DFA70BD7CB504460D46012000F08AFF19
:104BC000012101A8FFF7EDFF012000F083FF9DF810
:104BD00004102046FFF7E5FF012000F07BFF0221D3
:104BE0006846FFF7DEFF012000F074FF9DF800002B
:104BF0009DF8041060549DF801109DF80400401CBD
:104C000021549DF80400801C2870362000F0B8F86C
:104C1000012000F05FFF3A2000F0B2F8012000F020
:104C200059FF00F0FDF99DF8010000F08000802898
:104C300001D005207CBD0020FCE738B5044644F0D7
:104C4000C0000122694600F001FA9DF8000038BD5D
:104C500010B51C4840781C49085C1C491C4A127855
:104C6000895C0844C4B20A2000F034FF21460320C6
:104C700000F0C5F80A2000F02DFFC7211B2000F02E
:104C8000BEF80A2000F026FF00211C2000F0B7F833
:104C90000A2000F01FFF1821084600F0B0F80A2093
:104CA00000F018FFF821202000F0A9F80A2000F0F9
:104CB00011FF0721162000F0A2F80A2000F00AFFD9
:104CC00010BD00007A000020B4720008B87200081D
:104CD0007600002000B587B040F20C6001F092FD34
:104CE00040F2115001F08EFDE02200214FF0904083
:104CF00001F014FAE023002202214FF0904001F06D
:104D000079FAE023032200214FF0904001F0A1FA4C
:104D1000114801F0B9FD684601F003FE0020019042
:104D20004FF48270009000200290032005904FF411
:104D300000700390102006900020049069460648F9
:104D400001F0D6FD0721044801F08CFD024801F076
:104D50008FFD07B000BD00000030014010B5FFF727
:104D6000B9FF10BD2DE9F04104460D461646324606
:104D70002946204600F0A2F907463846BDE8F081F2
:104D800070B50446352C03D101201649086008E0AF
:104D9000342C03D102201349086002E0002011499D
:104DA00008600121104801F0E8F9322000F092FE7D
:104DB00040214FF0904000F09AFDC5B20DB9FF20A0
:104DC00070BD204601F0B6FD322000F083FE00BF2A
:104DD0000121054801F0D3F900BF0A2000F07AFE56
:104DE0002846EDE7900000200004004870B5044616
:104DF0000D462A4621467F2000F060F970BD13B5AC
:104E00000446012201A92046FFF7ACFF1CBD7047F4
:104E100010B5A2B088216846FFF7EBF900208DF8A5
:104E200000008DF8010008208DF80200302419E000
:104E300016484078A04203D1A4F1300013494870CD
:104E40001248C078A04203D1A4F130000F49C870C5
:104E50000E484079A04203D1A4F130000B494871BB
:104E6000601CC4B23A2CE3DB084801788DF80710C7
:104E700041788DF80810C1788DF8091041798DF8C6
:104E80000A106846FFF7B4FB22B010BD14000020E2
:104E90000FB410B5A2B0469C882224A96846FFF73B
:104EA00081F900208DF8010001208DF802008DF8B5
:104EB00003406846FFF79CFB22B010BC5DF814FB72
:104EC00000B5A3B0882101A8FFF793F902208DF85F
:104ED000040001208DF8050008208DF8060001A8C7
:104EE000FFF786FB23B000BD10B5012422480078EF
:104EF0002249097888423CD00020214908801F4877
:104F0000007800EB00101F4901EBC000401D1B4959
:104F1000097801EB01111B4A02EBC1010979014437
:104F20001648007800EB001002EBC000B0F88600D5
:104F30000880124A127802EB0212124B03EBC202F3
:104F40001279D11D0D4A127802EB021203EBC20056
:104F500001F084FF09480078401C084908700846A1
:104F600000780A2190FBF1F201FB1200034908705E
:104F700000E00024204610BD1C0000201D00002081
:104F800000000020880600200FB410B5A2B0469C97
:104F900088216846FFF72DF922460DF193010DF1A6
:104FA0000300FFF7FFF801208DF8000000208DF8C6
:104FB00001008DF802406846FFF71AFB22B010BCD2
:104FC0005DF814FB70B504460D460026012C11D186
:104FD000FFF736FC0A2000F07DFD3620FFF7D0FEFB
:104FE0000A2000F077FD3320FFF7CAFE0A2000F008
:104FF00071FD05E0FFF7B9FB06460EB1032070BD59
:10500000012D03D13B20FFF7BBFE02E03A20FFF762
:10501000B7FE0020F3E710B500F002F8002010BD45
:1050200010B5FFF715FE002400E0641C142CFCD31F
:105030003420FFF7A5FE3520FFF7FFFD04460024CE
:1050400000E0641C142CFCD310BD00002DE9F047D7
:1050500081460D4616460121174801F08EF8322090
:1050600000F038FD40214FF0904000F040FCC7B206
:1050700017B9FF20BDE8F087484601F05BFC0A2025
:1050800000F028FD00240AE0002001F053FC8046D7
:1050900005F804800A2000F01DFD601C84B2B442B3
:1050A000F2DB00BF0121044801F069F800BF0A20CB
:1050B00000F010FD3846DDE7000400482DE9F0411E
:1050C00080460D4616460121164801F056F832205A
:1050D00000F000FD40214FF0904000F008FCC7B206
:1050E00017B9FF20BDE8F081404601F023FC0A20FB
:1050F00000F0F0FC002407E0285D01F01BFC0A2012
:1051000000F0E8FC601C84B2B442F5DB00BF012172
:10511000044801F034F800BF0A2000F0DBFC3846F8
:10512000E0E700000004004810B520214FF0904057
:1051300001F025F880214FF0904001F01EF8012188
:105140000A4801F01CF81E2000F0C4FC01210748A9
:1051500001F013F8642000F0BDFC0121034801F0C8
:105160000EF82D2000F0B6FC002010BD0004004811
:1051700010B500F0DFFC10BD08B53248006840F003
:1051800001003049086000BF2E48006800F00200AE
:105190000028F9D000BF2B48406840F08000294922
:1051A00048600020009002E00098401C00900098A9
:1051B0005028F9D32348406840F0900021494860C6
:1051C0000020009002E00098401C009000985028B9
:1051D000F9D300BF1B48406820F00300194948601C
:1051E00008460068184908401649086008464068A3
:1051F0001649084013494860084640681449084069
:10520000104948600846406820F44000486008465D
:10521000C06A20F00F00C8620846006B40F24311DC
:105220008843084908630846406B20F00100486342
:105230000020886001F03EFC0021064801F0D4F80F
:1052400008BD000000100240FFFFF2FE0C00FF0846
:10525000FFFFC0F70040000800B50B480068401C85
:1052600080B10948006868B107480068401E0649D7
:1052700008600846006828B94FF0FF3001F06EFC66
:1052800000F0A0F800BD00004000002000B5C3B051
:105290000020429040F20471454801F00CFE0028C5
:1052A0007ED04449424801F078FE414801F0A8FD13
:1052B000022000F04BFC4048C078012807D03E484F
:1052C0000079012865D03C480079002861D03A482F
:1052D0000079411D42AA3848FFF76AF8364800793C
:1052E000401D3549085CBDF80811B0EB112F50D1B5
:1052F00031480079801D3049085CBDF80811C9B2F9
:10530000884246D12D49097801EB01112C4A02EB64
:10531000C1008821FEF76DFF274909794A1D2749F9
:10532000097801EB0111264B03EBC1002249FEF77E
:1053300039FF22480078401C204908700846007850
:105340000A2190FBF1F201FB12001C4908701A4877
:10535000C07801281DD11E900846007800EB00108F
:10536000174A02EBC00000F1120176226846FEF7F0
:1053700019FF1248007800EB0010114A02EBC00040
:10538000811C862220A8FEF70DFF20A80FC8FFF77A
:105390007FFD0949022000F04FFD8C21022000E032
:1053A00004E000F065FD022000F0E2FB43B000BD28
:1053B0000038014004000407AC0000201100002068
:1053C00038010020002008490860084908600849A1
:1053D00008600849086008490860084908600849E9
:1053E0000860084908607047240000202000002061
:1053F000280000202C000020300000203400002075
:10540000380000203C00002000BFFEE710B5044635
:10541000134800781349097888421ED08821204615
:10542000FEF7E7FE0F48007800EB00100E4A02EB93
:10543000C00188222046FEF7B5FE0A480078401CCD
:1054400008490870084600780A2190FBF1F201FB38
:10545000120004490870012010BD0020FCE7000084
:105460001100002012000020380100200FB43EB5CA
:105470000825002400210091019140F2E24001F052
:105480006DFBE6480068002873D19DF81B00E449D5
:1054900008609DF81C00096841EA0020E0490860A6
:1054A0009DF81D00096841EA0040DD4908609DF84B
:1054B0001E00096841EA0060D94908609DF81F0094
:1054C000D849086006A8007A096841EA0020D54951
:1054D000086006A8407A096841EA0040D14908609E
:1054E00006A8807A096841EA0060CE490860CC4885
:1054F0000068CD49884203D1CA4800680B2802D011
:105500003EBC5DF814FB06A8C07BC849086006A82D
:10551000007C096841EA0020C449086006A8407C74
:10552000096841EA0040C149086006A8807C096812
:1055300041EA0060BD490860BD49B948006801F012
:105540007BFB28B1BB49B648006801F04FFB18B996
:105550000020B3490860D3E771B600F069FDB44894
:105560000068B44A12688118B148006801F034FB41
:1055700061B6AA480068022811D2A8480068AC4960
:10558000096801EBC014AC48844208D3AB4884429C
:1055900005D2802221460DF11B0001F080FB9F48BF
:1055A000006802281ED89D480068022815D10120F5
:1055B000A34908609D48007800F07F0030B19B4807
:1055C0000068012101EBD010029003E097480068C9
:1055D000C00902909B490298086090480068401CEE
:1055E0008E4908609648006800282CD094480068CE
:1055F00050B39448006838B39148006891490968ED
:10560000884221D29DF89B008D490968884200D0CC
:1056100000BF8B480068401EC4018548006800F543
:10562000807004448448844208D38448844205D26C
:10563000802221460DF11B0001F031FB80480068FB
:10564000401C7F490860E7E07D48006840B17D4824
:10565000006828B17A4800687A490968884200D011
:105660004EE777480068401EC4017148006800F5A5
:10567000807004447048844208D37048844205D244
:10568000802221460DF11B0001F009FB0A2000F0E9
:10569000F1F900206C49088002906548006800F527
:1056A000807425E06248006800F580705F490968F1
:1056B0000844001BB0F5003F0BD3634A4FF40031A0
:1056C000204601F051FA604908800298401C02907F
:1056D0000AE0564A02981268A2EB40315A4A204624
:1056E00001F042FA5849088000F0B4F804F500349B
:1056F0004F48006800F580704C4909680844A04292
:10570000D0D80020504908800A46484801684848D7
:10571000006800F5807001F027FA4B4908800020EE
:105720004A49088071B60222414801681C31474845
:1057300001F0A8FA61B644480088444909888842C3
:1057400060D10020404908800A46FC2138480068A2
:1057500001F00AFA3C490880084600880290344863
:10576000006800F1FC042E4800682F49884253D19C
:1057700071B600F05DFC3649304801F02DFA082280
:105780002E49274801F08BFA082229480168183170
:1057900002A801F077FA08222849083102A801F08E
:1057A0007EFA01200290254C10342448844208D30C
:1057B00022483830844204D20822214602A801F04F
:1057C0006EFA012002901D4C18341C48844208D304
:1057D0001A483830844204D20822214602A801F037
:1057E0005EFA00200090019008221449203168469A
:1057F00001F055FA00F0C4FB61B6642000F03AF9FC
:10580000FEF792FF71B600F0BBFB61B6FFF7DAFD61
:105810004FF0FF3001F0A2F900BF71E62C0000202C
:10582000380000203C0000200A0A1000340000204C
:105830002000002024000020008C000800DC00086C
:1058400030000020280000204600002048000020F2
:10585000FFEB000810B500F051FC10BD10B500F0D2
:1058600019FD06219C2000F015FC00F04FFC10BD36
:10587000F0B591B006460D466846FEF78DFFF0B9CB
:105880009DF8010028B19DF801000F490978884270
:1058900017D19DF80000A84213D89DF800400DF1E3
:1058A00002079DF84200094908703CB1224639467A
:1058B0003046FEF777FC204611B0F0BD01E0002035
:1058C000FAE700BFF8E700001B0000209800002066
:1058D000F8B505460C4616460094F0B26A462946CD
:1058E000FEF7C4FF08B92046F8BD0020FCE770B5FC
:1058F00005460E46002407E03146284600F0A1FC8C
:1059000008B9012070BD641C44F620608442F3D3C2
:105910000020F7E730B5D1B0402141A8FFF7A8FF3C
:105920000446002C68D1484800884FF6FF71884231
:1059300007D04548008820B143480088401E4249AE
:1059400008804148008840B9FEF77AFF3620FFF70B
:1059500017FA4FF47A703C4908803C480068401CB4
:105960003A49086008460068052843D300200860CB
:10597000FEF7D8FD054605F0F00000F00F0151BB21
:105980000011082827D2DFE800F0040A0B0C0D0EE6
:10599000121CFFF740FB00202D49086029E000BFE2
:1059A00000BF00BF00BF00202949086021E03A2065
:1059B000FFF7E6F93420FFF7E3F9002024490860F7
:1059C00017E03B20FFF7DCF93420FFF7D9F900207E
:1059D0001F4908600DE0FF2D0AD11D480068052809
:1059E00006D21B480068401C19490860FEF728FFD2
:1059F00000BF00BF51B030BD3220134908800020E5
:105A00001249086012490860052C00D2F2E788218B
:105A10001FA8FEF7EEFB224641A90DF17F00FEF71D
:105A2000C1FB1FA8C079401DA04200D9E2E7E0B247
:105A3000762223A91E906846FEF7B4FB1FA80FC864
:105A4000FFF7A2FA00BFD5E7A00000209C000020CD
:105A5000A400002002E008C8121F08C1002AFAD1E1
:105A600070477047002001E001C1121F002AFBD1DE
:105A7000704700002DE9F04105462846FEF734FC4A
:105A80000746134801683846FEF7BEFB0646FEF798
:105A900030FC4FF0E021486100208861012008615E
:105AA00000BF4FF0E020046904F0010018B104F4D5
:105AB00080300028F5D04FF0E020006920F0010090
:105AC0004FF0E021086100208861BDE8F08100000E
:105AD000080000202DE9F04105462846FEF704FCA9
:105AE0000746134801683846FEF78EFB0646FEF768
:105AF00000FC4FF0E021486100208861012008612E
:105B000000BF4FF0E020046904F0010018B104F474
:105B100080300028F5D04FF0E020006920F001002F
:105B20004FF0E021086100208861BDE8F0810000AD
:105B3000040000200448006820B103480068401EAB
:105B400001490860704700000C00002000EB800154
:105B5000064A02EB8101896821F0010100EB800215
:105B6000024B03EB8202916070470000000002408C
:105B700000EB8001064A02EB8101896841F00101D6
:105B800000EB8002024B03EB820291607047000041
:105B90000000024000EB8001064A02EB81018968A7
:105BA00021F0200100EB8002024B03EB82029160A6
:105BB000704700000000024000B589B04FF4A060BB
:105BC00000F020FE012000F059F801208DF81900A6
:105BD0000020049001208DF8180000200590079007
:105BE0002448019000208DF80C0002904FF44050A2
:105BF000089001A9012000F07FF80120FFF7CAFFFB
:105C0000012000F023F90120FFF7C4FF012000F07C
:105C10001DF9022000F032F800208DF81900164816
:105C2000049001208DF81800002005908C2007902A
:105C30001048001F019000208DF80C0002904FF4D6
:105C40004050089001A9022000F056F80220FFF70A
:105C5000A1FF022000F0FAF840210648283801F0A0
:105C6000F5F80221084600F0D5F80220FFF780FF82
:105C700009B000BD28380140AC00002000EB8001D5
:105C8000144A02EB8101896821F0010100EB8002D6
:105C9000104B03EB82029160002100EB800203EBCA
:105CA0008202916000EB800203EB8202D16000EB84
:105CB000800203EB8202116100EB800203EB82029F
:105CC00051611946496883000F229A401143014AE5
:105CD000516070470000024010B50246054B1B683A
:105CE000940001FA04F423400BB1012000E00020ED
:105CF00010BD00000000024070B504460D4620466D
:105D0000FFF724FF04EB8401414A02EB810128687C
:105D1000086104EB840102EB8101E8684861288B8B
:105D200080B204EB840102EB8101C86004EB8400C3
:105D3000114601EB8000866826F47C562969686864
:105D40000843E9690843064304EB8400114601EB6C
:105D500080008660287A01280CD104EB840001EBD6
:105D60008000806840F0400004EB840102EB810178
:105D700088600DE004EB8400254901EB8000806819
:105D800020F0400004EB8401214A02EB810188608D
:105D9000287D01280ED104EB84001D4901EB800011
:105DA000806840F0800004EB8401194A02EB810115
:105DB00088600DE004EB8400154901EB80008068E9
:105DC00020F0800004EB8401114A02EB810188601D
:105DD000687D70B904EB84000D4901EB8000806898
:105DE00020F0100004EB8401094A02EB8101886075
:105DF0000DE004EB8400064901EB8000806840F070
:105E0000100004EB8401024A02EB8101886070BD3E
:105E10000000024010B500EB8002064B03EB82024B
:105E200092680A4300EB8003024C04EB83039A6000
:105E300010BD00000000024000EB8002024B03EBAB
:105E400082025161704700000000024000EB8001B7
:105E5000064A02EB8101896821F4804100EB80024F
:105E6000024B03EB82029160704700000000024089
:105E700010B58AB200EB8003024C04EB8303DA60B6
:105E800010BD00000000024010B52D4B1B6883437D
:105E90002B4C2360231D1B688343241D2360231D7B
:105EA0001B688343241D2360231D1B688343241D1B
:105EB000236011B101290ED105E0214B1B6803437A
:105EC0001F4C236008E01E4B1B1D1B6803431C4C2A
:105ED000241D236000E000BF00BF32B1012A11D0B1
:105EE000022A1CD0032A27D127E0154B08331B6850
:105EF0000343134C08342360231D1B688343241D74
:105F000023601BE00E4B08331B6883430C4C0834A2
:105F10002360231D1B680343241D23600EE0084BF0
:105F200008331B680343064C08342360231D1B6899
:105F30000343241D236001E000BF00BF00BF10BD6C
:105F4000000401400149086070470000140401404A
:105F500001460748006800EA010205481438006855
:105F600000EA010312B10BB1012070470020FCE7E9
:105F7000140401400149C86070470000002002403D
:105F80000348006940F08000014908617047000043
:105F90000020024070B504464FF4702000F01EF857
:105FA0000546B5B90C48006940F002000A4908618D
:105FB00008464461006940F0400008614FF47020D9
:105FC00000F00CF805460448006920F00200024980
:105FD0000861284670BD00000020024070B50546EB
:105FE000012400BF00F00CF804466D1E012C01D105
:105FF000002DF7D1012C00D10424204670BD0000F3
:1060000000200A49C96801F0010109B101200CE032
:106010000649C96801F0100109B1032005E00349F0
:10602000C96801F0040101B102207047002002405C
:106030000548006900F0800020B10448024948602A
:106040000348486070470000002002402301674574
:10605000AB89EFCD70B504460D464FF47020FFF7C5
:10606000BDFF06468EB90A48006940F001000849A4
:10607000086125604FF47020FFF7B0FF0646044822
:10608000006920F0010002490861304670BD00003F
:106090000020024030B502460B46164C002145F266
:1060A0005550154D286000BF1348C06800F001012D
:1060B000601E041E01D00029F6D109B1002030BDB8
:1060C0000D4843600B4C00BF0B48C06800F0020154
:1060D000601E041E01D00029F6D109B10020EEE7B0
:1060E000C2F30B00044DA8604AF6AA2028600120E4
:1060F000E5E70000FFFF0F00003000404AF6AA204D
:106100000149086070470000003000404CF6CC4068
:10611000014908607047000000300040F0B50346B8
:106120001C6A5D6A00200DE00126864016403EB1E3
:1061300087000F26BE40B443860001FA06F63443BA
:10614000461CB0B20828EFD3082011E00126864093
:1061500016405EB1A0F10806B7000F26BE40B54359
:10616000A0F10806B60001FA06F63543461CB0B2A7
:106170001028EBD31C625D62F0BD816270478161C3
:106180007047000010B540F2125000F03BFB0423B2
:1061900000220121164800F02DF8042303220021DB
:1061A000134800F056F84FF4807300220121104884
:1061B00000F020F84FF48073032200210C4800F017
:1061C00048F8012300221946094800F013F801237A
:1061D00003220021064800F03CF804210448FFF7A0
:1061E000CCFF4FF480710248FFF7C7FF10BD0000DD
:1061F00000040048F0B504460D4616462168E268E2
:10620000002019E0012787401F409FB14FEA400C52
:10621000032707FA0CF7B943470005FA07F7394394
:106220004FEA400C032707FA0CF7BA43470006FA77
:1062300007F73A43471CB8B21028E3D32160E26065
:10624000F0BD02465069084008B1012070470020A7
:10625000FCE7F0B50C461546012C03D146681E43F9
:10626000466002E046689E434660826800210DE079
:1062700001268E401E403EB14F000326BE40B24371
:106280004E0005FA06F632434E1CB1B21029EFD388
:106290008260F0BD10B54FF4106000F01DFA00BF31
:1062A0004FF4106000F028FA0028F9D010BD00006B
:1062B0000024002500F016FCFFF764FF00F00AFE42
:1062C000FFF77AFCFEF7BCFAFEF7FAFD00BF06E026
:1062D000002500E06D1C12488542FBD3641C002C95
:1062E000F6D0FEF7EDFDFFF7B9FA18E00D4800888B
:1062F000B0F5C67F01DBFEF78BFDFEF7F5FDFEF77F
:1063000051FBFFF707FBFEF7A7FF0420FFF7B2FBE7
:10631000FFF7A0FA03480088401C02490880E5E71F
:1063200080841E00000000202DE9F04103460D4648
:10633000164600240027A0462448006800F4E060C8
:10634000B0F5A06F15D006DCB0F5407F18D0B0F5E1
:10635000806F19D110E0B0F5C06F06D0B0F5E06FD6
:1063600012D100274FF0040815E001274FF0030871
:1063700011E00227B8460EE003274FF001080AE0BB
:1063800004274FF0000806E04FF4A06000F022F868
:106390000227B84600BF00BFC7F1040005FA00F4A9
:1063A000C8F104010F20C8403040044324010848CC
:1063B000C45403F01F01012088405911890001F1E4
:1063C000E021C1F80001BDE8F08100000CED00E023
:1063D00000E400E002490143024A116070470000F6
:1063E0000000FA050CED00E0064A0A400243064BA5
:1063F0001A6000BF00BF00BFBFF34F8F00BF00BFD8
:1064000000BF704780FFFF1F08ED00E02DE9F04F4F
:106410008FB004464FF0000CE0460020002200251B
:106420008146CDF838900021CDF83490CDF83090E9
:10643000CDF82C900023CDF82890CDF82490CDF8FD
:106440002090002600270FF24C2999E8004CD9F83B
:106450000C90CDE905BECDF810A0CDF81C900FF240
:10646000382ADAE9009ACDE9029A0FF22C2ADAE901
:10647000009ACDE9009ADFF82C92D9F80490C9F37C
:10648000810CBCF1000F06D0BCF1010F05D0BCF1AE
:10649000020F3FD103E0844A3EE0834A3CE0DFF84C
:1064A0000492D9F80490C9F38343DFF8F891D9F83E
:1064B0000490C9F3C069CDF82890DDF82890B9F1AF
:1064C000000F01D0113300E09B1CDFF8D891D9F800
:1064D0000490C9F30049CDF82490DDF82490B9F177
:1064E000000F12D0DFF8BC91D9F82C9009F00F09F9
:1064F00009F10109CDF82090DFF8ACA1DDF820907A
:10650000BAFBF9F909FB03F203E0DFF8A09103FB02
:1065100009F201E0644A00BF00BFDFF88891D9F8B2
:106520000490C9F303160DF1100919F8067022FA48
:1065300007F5DFF87091D9F80490C9F302260DF140
:10654000080919F8067025FA07F9CDF83890DFF830
:106550005491D9F80490C9F3C2261DF8067025FAA3
:1065600007F1072C72D2DFE804F00406080A0C4792
:106570005B00104689E0284687E00E9885E00846D3
:1065800083E0DFF82091D9F8309009F48079B9F5EB
:10659000807F04D0DFF81891CDF834902AE0DFF83E
:1065A0000491D9F80490C9F38138B8F1000F09D0EB
:1065B000B8F1010F0BD0B8F1020F0DD0B8F1030FF5
:1065C00016D110E04FEA5109CDF8349011E04FEAAE
:1065D0009109CDF834900CE04FF00609B1FBF9F9C0
:1065E000CDF8349005E04FEAD109CDF8349000E0C1
:1065F00000BF00BF0D9848E0DFF8A890D9F83090B0
:1066000009F04009B9F1400F04D048F21209CDF861
:10661000309003E04FF40049CDF830900C9834E00E
:10662000DFF88090D9F8309009F00309B9F1000F34
:1066300001D10B9126E0DFF86C90D9F8309009F089
:106640000309B9F1010F02D10B921BE01CE0DFF846
:106650005490D9F8309009F00309B9F1020F04D130
:106660004FF40049CDF82C900CE0DFF83890D9F8C1
:10667000309009F00309B9F1030F03D1DFF8289036
:10668000CDF82C900B9800E000BF00BF0FB0BDE824
:10669000F08F000000000000000000000102030471
:1066A000060708090010024000127A0000093D00A8
:1066B000809FD5000146074A02EB9110006801F067
:1066C0001F0301229A40104008B1012070470020AA
:1066D000FCE7000000100240064A02EB9011096836
:1066E00000F01F0301229A401143024B03EB90126A
:1066F0001160704700100240F0B5064600240027E4
:106700000025B6F5006F1DD005DC76B3102E09D03C
:10671000182E70D15EE0B6F5106F49D0B6F5506F07
:1067200069D133E004E01120FFF7C4FF0546641C83
:1067300015B9B4F5006FF6D11120FFF7BBFF00B11A
:10674000012759E005E040F60100FFF7B3FF0546D9
:10675000641C1DB96FF07C408442F4D140F6010006
:10676000FFF7A8FF00B1012746E0FFE704E00120A2
:10677000FFF7A0FF0546641C15B9B4F5A06FF6D16C
:106780000120FFF797FF00B1012735E005E040F653
:106790000150FFF78FFF0546641C15B91848844265
:1067A000F5D140F60150FFF785FF00B1012723E046
:1067B00005E040F60110FFF77DFF0546641C15B9A2
:1067C0000F488442F5D140F60110FFF773FF00B186
:1067D000012711E004E01920FFF76CFF0546641C57
:1067E00015B907488442F6D11920FFF763FF00B1BD
:1067F000012701E0FFE700BF00BF3846F0BD000001
:10680000FFFF0F00064A02EB9011096800F01F031A
:1068100001229A401143024B03EB90121160704722
:1068200000100240064A02EB9011096800F01F03B5
:1068300001229A409143024B03EB90121160704782
:1068400000100240064A02EB9011096800F01F0395
:1068500001229A401143024B03EB901211607047E2
:1068600000100240026842F4005202600161704769
:10687000016841F04001016070470146C86880B27C
:106880007047C1607047000010B5044613482044AB
:1068900070B1B0F5806F14D0B0F5784F1AD14FF4C5
:1068A0004370FFF7CFFF4FF44370FFF7BBFF12E0D9
:1068B00040F20E40FFF7C6FF40F20E40FFF7B2FF76
:1068C00009E040F20F40FFF7BDFF40F20F40FFF735
:1068D000A9FF00E000BF00BF10BD000000C8FFBF5F
:1068E00002469068084008B1012070470020FCE78C
:1068F00002460020106800F441500B6818434B68B2
:1069000018438B681843CB6818430B6918434B69CD
:1069100018438B6918431060D36923F40063D36173
:1069200070470021016041608160C1600161416187
:106930008161704770B50446002500BF02210B48F5
:10694000FFF7CEFF0028F9D021460848FFF799FF4E
:1069500000BF01210548FFF7C3FF0028F9D0034815
:10696000FFF78BFFC5B2284670BD00000030014024
:1069700070B504460B46CD1701EB9575AD10A1EB34
:106980008505AE000F25B540E843CD1701EB9575A1
:10699000AD10A1EB8505AD0004FA05F2CD1701EBB2
:1069A0009575AD1035B1012D0ED0022D16D0032DE9
:1069B00028D11DE0154B9B680340144DAB602B465E
:1069C0009B681343AB601EE0104BDB6803400F4D28
:1069D000EB602B46DB681343EB6014E00B4B1B6949
:1069E00003400A4D2B612B461B6913432B610AE0C0
:1069F000064B5B690340054D6B612B465B69134396
:106A00006B6100E000BF00BF70BD000000000140EE
:106A100000200021254A126842F48032234B1A607C
:106A200000BF401C214A126802F4003111B9B0F5D0
:106A3000006FF6D11D4A126802F4003202B97047A5
:106A40001A4A5268194B5A601A4652685A601A46D6
:106A500052685A601A465268154B1A40134B5A60D6
:106A60001A46526842F4E8125A601A46126842F016
:106A700080721A6000BF0D4A126802F00072002A8C
:106A8000F9D00A4A526822F00302084B5A601A46AB
:106A9000526842F002025A6000BF044A526802F093
:106AA0000802002AF9D000BFC9E700000010024028
:106AB000FFFFC27710B5FFF7ABFF10BD042808D168
:106AC0004FF0E021096941F004014FF0E02211612B
:106AD00007E04FF0E021096921F004014FF0E022C6
:106AE0001161704770B56FF00400FFF7E7FF1448BD
:106AF0000068FDF7F9FB05461249FDF7B7FB0446B0
:106B00004FF08241FDF7B2FB0F4908600F490E4874
:106B10000068FDF779FB0E4908604FF0FF30002157
:106B2000002807DA0A07140E0A4A00F00F031B1F99
:106B3000D45403E00A07130E074A135400BF70BD74
:106B4000A80000200024F44A0400002000007A4439
:106B50000800002018ED00E000E400E001490860B2
:106B600070470000400000202DE9F04780460C46A9
:106B700091460026B9F800700025C24623E0202C7B
:106B800001D9202000E0204685B22A46514610480F
:106B900000F094F8AA4400260CE00D48805D80EADD
:106BA0002720C0B20B4931F8100080EA072087B2D5
:106BB000701C86B2AE42F0DBA54201D0203C02E060
:106BC0003846BDE8F087002CD9D10020F9E7000055
:106BD000880F0020B874000870B504460D460026E2
:106BE0002946204600F022FA304670BD30B50246F4
:106BF0000B460021002000BF15E00D4C54F8314039
:106C00000C4DAC4201D100200FE0094C54F831404A
:106C1000944206D1064C04EBC10464681C60012058
:106C200003E04C1CE1B21F29E7DB00BF30BD0000D0
:106C3000C07300081F0A100030B502460B46002141
:106C4000002000BF15E00D4C54F831400C4DAC4213
:106C500001D100200FE0094C54F83140944206D194
:106C6000064C04EBC10464681C60012003E04C1C6A
:106C7000E1B21F29E7DB00BF30BD0000C872000889
:106C80001F0A1000F0B504460D461646002732468E
:106C90002946204600F012F807463846F0BD2DE997
:106CA000F04104460D461646002732462946204646
:106CB00000F011F807463846BDE8F08110B50346EC
:106CC00003E011F8010B03F8010B101EA2F10104FF
:106CD000A2B2F6D110BD2DE9F84F05460E46144676
:106CE0004FF001090027BA462046E11704EB9171E5
:106CF0008910A4EB8101CFB2E11704EB9171C1F3CC
:106D00008F0AFFF795F94FF0000816E03046296822
:106D1000FFF7A0F958B9361D2D1D2020FFF72AF9DD
:106D20001020FFF727F90420FFF724F901E04FF0C6
:106D3000000908F101001FFA80F8D045E6DBE7B151
:106D4000FF2204216846FDF74DFA3A462946684677
:106D5000FDF728FA30460099FFF77CF958B9202052
:106D6000FFF708F91020FFF705F90420FFF702F9F3
:106D70004FF0010901E04FF00009FFF701F9484623
:106D8000BDE8F88F2DE9F04704460D460027B846C8
:106D9000B94600261948204438B1B0F5744F09D1DE
:106DA0000620FFF733FB074605E00220FFF72EFB26
:106DB000074600E000BF00BF206800F4004070B14B
:106DC000780000EB5500B0FBF5F64FF6F07006EAE0
:106DD0000008C6F3420948EA0900E0600CE007EB4E
:106DE0005500B0FBF5F64FF6F07006EA000806F025
:106DF0000F0948EA0900E060BDE8F08700BCFFBF6A
:106E00000146486AC0F308007047000010B5044608
:106E10000D48204458B1B0F5744F11D140F20E30F6
:106E2000FFF710FD40F20E30FFF7FCFC09E040F2E6
:106E30001140FFF707FD40F21140FFF7F3FC00E0BF
:106E400000BF00BF10BD000000BCFFBF826822F081
:106E50004002826082680A438260704770B50446CF
:106E60000D460120FEF772FE21460120FEF7E4FFE9
:106E700029460120FEF7FCFF0120FEF779FE802164
:106E8000054800F00BF800BF02210120FEF724FFA7
:106E90000028F9D070BD000000380140826822F05F
:106EA0008002826082680A4382607047016841F014
:106EB00001010160704710B5024602EB91100068B5
:106EC00001F01F040123A340184008B1012010BDA8
:106ED0000020FCE710B540F21250FFF793FC40F29F
:106EE0000E60FFF78FFC402200212248FFF716F9C1
:106EF000802200211F48FFF711F9402301220221BF
:106F00001C48FFF777F98023012200211948FFF779
:106F1000A0F94023012202211648FFF76BF98023D4
:106F2000012200211348FFF794F91348FFF76EFF81
:106F30004FF4E1311048FFF725FF08210E4800F01B
:106F40003DF804210C4800F031F80B48FFF7AEFF84
:106F50000421094800F014F80849074800F01DF81A
:106F60000548FFF74DFF012211461B20FFF7DCF912
:106F700010BD000000040048003801400400040770
:106F800010B500EB9112126801F01F040123A34019
:106F90001A4300EB91131A6010BD10B5026AC1F3D9
:106FA00004440123A3401A43026210BD026822F088
:106FB0000402026002680A4302607047026822F01D
:106FC0000802026002680A43026070470146144AE0
:106FD00008681040B0F1005F21D1012080F31388D0
:106FE00000BF00BF00BF00BF00BF00BFBFF34F8F97
:106FF00000BF00BF00BF0B48006800F4E0600A4A11
:107000001043001D074A106000BF00BF00BFBFF360
:107010004F8F00BF00BF00BF00E000BFFDE770471B
:107020000000FE2F0CED00E00000FA052DE9F04114
:1070300004460E46301B012101EB9027FEF7F8FFB6
:107040002020FEF797FF1020FEF794FF0420FEF7A4
:1070500091FF00250FE04FF4806101FB0540FEF732
:1070600099FF2020FEF786FF1020FEF783FF042003
:10707000FEF780FF6D1CBD42EDD3FEF781FFBDE83A
:10708000F08100002110422063308440A550C6608A
:10709000E770088129914AA16BB18CC1ADD1CEE1D5
:1070A000EFF13112100273325222B5529442F7724C
:1070B000D662399318837BB35AA3BDD39CC3FFF325
:1070C000DEE36224433420040114E664C774A4445C
:1070D00085546AA54BB528850995EEE5CFF5ACC575
:1070E0008DD55336722611163006D776F66695562C
:1070F000B4465BB77AA719973887DFF7FEE79DD7C5
:10710000BCC7C448E5588668A778400861180228BB
:107110002338CCC9EDD98EE9AFF9488969990AA914
:107120002BB9F55AD44AB77A966A711A500A333A8B
:10713000122AFDDBDCCBBFFB9EEB799B588B3BBB64
:107140001AABA66C877CE44CC55C222C033C600C1B
:10715000411CAEED8FFDECCDCDDD2AAD0BBD688DB4
:10716000499D977EB66ED55EF44E133E322E511E6B
:10717000700E9FFFBEEFDDDFFCCF1BBF3AAF599F04
:10718000788F8891A981CAB1EBA10CD12DC14EF1A4
:107190006FE18010A100C230E3200450254046700A
:1071A0006760B9839893FBA3DAB33DC31CD37FE335
:1071B0005EF3B1029012F322D2323542145277625A
:1071C0005672EAB5CBA5A89589856EF54FE52CD505
:1071D0000DC5E234C324A0148104667447642454AA
:1071E0000544DBA7FAB79987B8975FE77EF71DC715
:1071F0003CD7D326F2369106B016576676761546FA
:1072000034564CD96DC90EF92FE9C899E9898AB964
:10721000ABA94458654806782768C018E108823849
:10722000A3287DCB5CDB3FEB1EFBF98BD89BBBAB74
:107230009ABB754A545A376A167AF10AD01AB32A99
:10724000923A2EFD0FED6CDD4DCDAABD8BADE89DC4
:10725000C98D267C076C645C454CA23C832CE01CE9
:10726000C10C1FEF3EFF5DCF7CDF9BAFBABFD98F54
:10727000F89F176E367E554E745E932EB23ED10E39
:10728000F01EC0C0C0C0C0C0C0C00B0C0D0E0F109F
:10729000111213140A15212218191A1B1C1D23245C
:1072A0002526292C2D2E000207080906120E1D3452
:1072B0006084C8C007172737004006042DCA3B83E7
:1072C000EAE98881313562340A0A1000008C00082E
:1072D0001F0A100000000000000000000000000075
:1072E000000000000000000000000000000000009E
:1072F000000000000000000000000000000000008E
:10730000000000000000000000000000000000007D
:10731000000000000000000000000000000000006D
:10732000000000000000000000000000000000005D
:10733000000000000000000000000000000000004D
:10734000000000000000000000000000000000003D
:10735000000000000000000000000000000000002D
:10736000000000000000000000000000000000001D
:10737000000000000000000000000000000000000D
:1073800000000000000000000000000000000000FD
:1073900000000000000000000000000000000000ED
:1073A00000000000000000000000000000000000DD
:1073B00000000000000000000000000000000000CD
:1073C0000A0A1000005000001F0A10000000000010
:1073D00000000000000000000000000000000000AD
:1073E000000000000000000000000000000000009D
:1073F000000000000000000000000000000000008D
:10740000000000000000000000000000000000007C
:10741000000000000000000000000000000000006C
:10742000000000000000000000000000000000005C
:10743000000000000000000000000000000000004C
:10744000000000000000000000000000000000003C
:10745000000000000000000000000000000000002C
:10746000000000000000000000000000000000001C
:10747000000000000000000000000000000000000C
:1074800000000000000000000000000000000000FC
:1074900000000000000000000000000000000000EC
:1074A00000000000000000000000000000000000DC
:1074B00000000000000000000000211042206330A6
:1074C0008440A550C660E770088129914AA16BB13C
:1074D0008CC1ADD1CEE1EFF13112100273325222E4
:1074E000B5529442F772D662399318837BB35AA38C
:1074F000BDD39CC3FFF3DEE36224433420040114B4
:10750000E664C774A44485546AA54BB528850995DB
:10751000EEE5CFF5ACC58DD5533672261116300683
:10752000D776F6669556B4465BB77AA7199738872B
:10753000DFF7FEE79DD7BCC7C448E5588668A77843
:107540004008611802282338CCC9EDD98EE9AFF97B
:10755000488969990AA92BB9F55AD44AB77A966A23
:10756000711A500A333A122AFDDBDCCBBFFB9EEBCB
:10757000799B588B3BBB1AABA66C877CE44CC55CF3
:10758000222C033C600C411CAEED8FFDECCDCDDD1B
:107590002AAD0BBD688D499D977EB66ED55EF44EC3
:1075A000133E322E511E700E9FFFBEEFDDDFFCCF6B
:1075B0001BBF3AAF599F788F8891A981CAB1EBA1BF
:1075C0000CD12DC14EF16FE18010A100C230E3203B
:1075D0000450254046706760B9839893FBA3DAB3E3
:1075E0003DC31CD37FE35EF3B1029012F322D2328B
:1075F0003542145277625672EAB5CBA5A8958985B3
:107600006EF54FE52CD50DC5E234C324A0148104DA
:107610006674476424540544DBA7FAB79987B89782
:107620005FE77EF71DC73CD7D326F2369106B0162A
:1076300057667676154634564CD96DC90EF92FE942
:10764000C899E9898AB9ABA944586548067827687A
:10765000C018E1088238A3287DCB5CDB3FEB1EFB22
:10766000F98BD89BBBAB9ABB754A545A376A167ACA
:10767000F10AD01AB32A923A2EFD0FED6CDD4DCDF2
:10768000AABD8BADE89DC98D267C076C645C454C1A
:10769000A23C832CE01CC10C1FEF3EFF5DCF7CDFC2
:1076A0009BAFBABFD98FF89F176E367E554E745E6A
:1076B000932EB23ED10EF01ED876000800000020B6
:1076C000AC000000545A000884770008AC00002089
:1076D000FC120000645A00080000000000000000D6
:1076E00000000000000000000000000056332E30B3
:1076F0002E3000000000000000000000000000002C
:107700000000000000000000000000000000000079
:107710000000000000000000000000000000000069
:107720000000010000000000000000000C0010A795
:10773000622D3B0322F80062B610181D1CC700B072
:10774000EA2A001F5988310907060E45FE4001004C
:1077500001FE0700260014004000000000000000A9
:107760000000000000000000000000000000000019
:107770000000000000000000000000000000000009
:0477800000A24A0415
:040000050800416945
:00000001FF
